:020000040800F2
:1000000000000220E10F00087D0F00087F0F0008AC
:10001000810F0008830F0008850F00080000000012
:10002000000000000000000000000000870F000832
:10003000890F0008000000008B0F00088D0F0008DA
:10004000311000083110000831100008311000088C
:10005000311000083110000831100008311000087C
:10006000311000083110000831100008311000086C
:10007000311000083110000831100008311000085C
:10008000311000083110000831100008311000084C
:10009000311000083110000831100008311000083C
:1000A000311000083110000831100008311000082C
:1000B000311000083110000831100008311000081C
:1000C000311000083110000831100008311000080C
:1000D00031100008311000083110000831100008FC
:1000E00031100008311000083110000831100008EC
:1000F00031100008311000083110000831100008DC
:1001000031100008311000083110000831100008CB
:1001100031100008311000083110000831100008BB
:1001200031100008311000083110000831100008AB
:10013000311000080000000000000000311000082D
:10014000311000083110000831100008311000088B
:10015000311000083110000831100008311000087B
:10016000311000083110000831100008311000086B
:1001700031100008311000083110000800000000A4
:100180000000000031100008000000000000000026
:1001900031100008000000000000000031100008CD
:1001A0000000000000000000000000003110000806
:1001B000311000083110000831100008311000081B
:0401C00031100008F2
:10020000044B05481B1A062B02D9044B03B11847AF
:10021000704700BF4F0800204C080020000000007D
:1002200005490648091A891001EBD171491002D01D
:10023000034B03B1184770474C0800204C080020BE
:100240000000000010B5064C237843B9FFF7D8FF33
:10025000044B13B10448AFF300800123237010BD99
:100260004C080020000000004810000808B5084BAA
:100270001BB108490848AFF300800848036813B968
:10028000BDE80840CCE7064B002BF9D09847F7E7CC
:100290000000000050080020481000084C08002012
:1002A00000000000002301461A46184600F096BBE5
:1002B000014B1868704700BF0000002038B50A4C99
:1002C0000A4D641BA4100AD004F18043013B05EBE6
:1002D0008305013C55F804399847002CF9D1BDE855
:1002E000384000F0B7BE00BFD4120008D01200089A
:1002F00070B50F4E0F4D761BB61018BF002405D0F9
:10030000013455F8043B9847A642F9D10A4E0B4DEB
:10031000761B00F099FEB61018BF002406D00134F9
:1003200055F8043B9847A642F9D170BD70BD00BF97
:10033000C8120008C8120008D0120008C81200082D
:10034000024B0146186800F00BB800BF0000002007
:10035000024B0146186800F0E3BB00BF000000201C
:100360002DE9F04F01F10B06162E83B0054640F241
:100370009E8036F0070600F1BD80B14200F2BA80DF
:1003800000F098FAB6F5FC7FC0F08F82730A00F097
:10039000B880042B00F27D81B30903F1390003F129
:1003A000380EC300C14F3B44A3F108015C68A14271
:1003B00006D10CE0002A80F2AA80E468A14206D0AF
:1003C000636823F003039A1B0F2AF3DD70463C6930
:1003D000DFF8DCE2744500F0A781636823F00303D3
:1003E0009A1B0F2A00F38C81002AC7F814E0C7F883
:1003F00010E080F29D80B3F5007F80F05D81DB0826
:1004000003F1010C99107A6857F83C80C4F8088011
:1004100001238B4007EBCC0113430839E1607B607B
:1004200047F83C40C8F80C408210012494409C429C
:1004300000F28B801C4206D120F0030064001C42B5
:1004400000F10400FAD007EBC009CC468046DCF886
:100450000C309C4507D169E1002A80F27781DB6886
:100460009C4500F06381596821F003018A1B0F2A23
:10047000F2DDD3F80CC0D3F8088001939C1928460C
:1004800046F0010642F001055E60C8F80CC0CCF8E9
:1004900008807C613C61C4F80CE0C4F808E0656049
:1004A0005A5000F009FA019B03F108041EE01029DC
:1004B00020D800F0FFF91026182302207B4F3B4480
:1004C000A3F108025C68944200F039816368E16836
:1004D000A66823F00303234428465A68F16042F0DB
:1004E00001028E605A6000F0E7F90834204603B03C
:1004F000BDE8F08F00240C2320462B6003B0BDE83C
:10050000F08F40204FF400734FF03F0E4AE7234432
:10051000E1685A68A66842F00102F16028468E60E0
:100520005A6000F0C9F90834204603B0BDE8F08FE6
:10053000234428465A6842F001025A6000F0BCF990
:100540000834204603B0BDE8F08FBC68636823F030
:100550000309B14504D3A9EB06030F2B00F38980EF
:10056000DFF850A1D7F80824DAF80030013204EBA4
:10057000090B06EB030800F0508108F5805808F1DC
:100580000F0828F47F6828F00F084146284600F03D
:1005900095F9421C034600F0F680834500F2F18095
:1005A000DAF804204244CAF8042000F04781D7F862
:1005B000081401311BBFA3EB0B0B5A44C7F80834D6
:1005C000CAF8042013F0070200F00D81C2F10801FF
:1005D000C2F580520B4408329844C8F30B08A2EBD2
:1005E000080841462846019300F068F9431C019B26
:1005F00000F03E81C11A414441F00101DAF80420C3
:10060000BB604244BC425960CAF8042016D0B9F11C
:100610000F0F40F2F4806168A9F10C0323F0070387
:10062000E01801F001014FF0050E19430F2B616036
:10063000C0F804E0C0F808E000F21281DAF82C30CB
:10064000BC689A42DAF8303088BFCAF82C209A4247
:1006500088BFCAF83020626822F003029642A2EBFB
:10066000060301D80F2B04DC284600F025F90024EE
:100670003CE7A21943F0010346F0010666602846F4
:10068000BA60536000F018F90834204603B0BDE8A2
:10069000F08F142B69D9542B00F29B80330B03F19C
:1006A0006F0003F16E0EC3007CE600BF3004002033
:1006B00038040020680800205A0A042A5BD9142A4A
:1006C00000F2AE8002F15C01C9005B3207EB010C65
:1006D0007958ACF1080C8C4500F088804A6822F00B
:1006E0000302934273D289688C45F7D1DCF80C2061
:1006F0007B68E260C4F808C09460CCF80C4093E6D4
:10070000A11946F0010C42F00106C4F804C02846C5
:1007100079613961C1F80CE0C1F808E04E60E2503F
:1007200000F0CAF80834E1E67B687DE608F10108CC
:1007300018F0030F0CF1080C7FF489AE2DE0DC6893
:10074000A34208BF02303FF442AEBFE619441C4644
:100750004A68DB6854F8086F42F001024A60284694
:10076000F3609E6000F0A8F8C0E603F15C0003F1BE
:100770005B0EC30016E69A0902F13901C90038324E
:10078000A4E7BC4254D0BC68626822F0030265E76B
:1007900059F80839994540F0868010F0030F00F1B0
:1007A000FF30F5D17B6823EA04037B6064009C4240
:1007B0003FF6CBAE002C3FF4C8AE1C4240467FF45F
:1007C00042AE64001C4200F10400FAD03BE68C46C5
:1007D0008CE7B3F5AA7F15D8F30B03F1780003F18A
:1007E000770EC300DEE54FF48052F5E67B68921089
:1007F000012101FA02F213437B60624679E701228C
:100800005A6031E740F25452934223D8B30C03F1BB
:100810007D0003F17C0EC300C4E508F11008B4E6C6
:10082000542A29D81A0B02F16F01C9006E324DE724
:10083000DAF804204244CAF80420B8E6CBF30B01EE
:1008400000297FF4B4AE09EB0803B96843F0010353
:100850004B60F3E67F204FF47E734FF07E0EA1E5F0
:1008600004F10801284600F05BF9DAF80420E5E617
:1008700001214FF00008C1E6B2F5AA7F05D8DA0BD6
:1008800002F17801C900773220E740F254518A42E0
:1008900005D89A0C02F17D01C9007C3216E74FF4AD
:1008A0007E717E2212E77B6880E7F00806F108037C
:1008B00004E600BF704700BF704700BF38B5074C63
:1008C000002305460846236000F064FB431C00D06B
:1008D00038BD2368002BFBD02B6038BDBC0800203E
:1008E0000000000000000000000000000000000008
:1008F00000000000000000000000000000000000F8
:1009000090F800F06DE9024520F007016FF0000C4F
:1009100010F0070491F820F040F049804FF00004F7
:100920006FF00700D1E9002391F840F000F10800D2
:1009300082FA4CF2A4FA8CF283FA4CF3A2FA8CF30A
:100940004BBBD1E9022382FA4CF200F10800A4FA71
:100950008CF283FA4CF3A2FA8CF3E3B9D1E90423C5
:1009600082FA4CF200F10800A4FA8CF283FA4CF3FC
:10097000A2FA8CF37BB9D1E9062301F1200182FAB6
:100980004CF200F10800A4FA8CF283FA4CF3A2FABC
:100990008CF3002BC6D0002A04BF04301A4612BACA
:1009A000B2FA82F2FDE8024500EBD2007047D1E9CD
:1009B000002304F00305C4F100004FEAC50514F05C
:1009C000040F91F840F00CFA05F562EA05021CBF2D
:1009D00063EA050362464FF00004A9E72DE9F047FA
:1009E000254C2568D5F848410646884692469946E2
:1009F000C4B360681F2817DC431C76B104EB800584
:100A00000122C5F888A0D4F8881182401143022E33
:100A1000C4F88811C5F808911ED00230636044F80C
:100A200020800020BDE8F087144B03B34FF4C8705A
:100A3000FFF786FC0446D0B1D5F84831002780E89E
:100A40008800C5F8484138460123C4F88871C4F8C5
:100A50008C71002EE1D0D1E7D4F88C110A43C4F890
:100A60008C21DAE705F5A674C5F84841C1E74FF0D7
:100A7000FF30BDE8F08700BF6010000841030008A8
:100A8000F8B5244F0C460646FFF714FFBB685D68B7
:100A9000C4F57E610F3125F00305294421F47F61FF
:100AA00021F00F01A1F58054B4F5805F07DB002130
:100AB0003046FFF703FFBB682B44984204D0304612
:100AC000FFF7FAFE0020F8BD61423046FFF7F6FE60
:100AD00001300DD0104BBA6819682D1B45F0010587
:100AE0003046091B55601960FFF7E6FE0120F8BD8E
:100AF00000213046FFF7E2FEBA68831A0F2BDEDDD5
:100B0000064C0549246843F00103001B536008604C
:100B1000D5E700BF300400206C0800203808002012
:100B2000002944D02DE9F0410D468046FFF7C2FE72
:100B300055F8047C694927F00103A5F10804E2187F
:100B40008E685068B24220F003005ED0FE0750600D
:100B50000BD455F8087CE41B01F1080EA568754517
:100B60003B446DD0E768EF60BD6015186D68ED0718
:100B70003ED543F001026260E350B3F5007F17D227
:100B8000DB08581C9A104D6851F83070A76001239B
:100B9000934001EBC0022B43083AE2604B6041F8FE
:100BA0003040FC604046BDE8F041FFF785BE70472D
:100BB0005A0A042A52D89A0902F13907FF0002F1B1
:100BC0003805C819CA59083890424FD0516821F0E9
:100BD00003018B4232D292689042F7D1C368A06081
:100BE000E3609C60C4604046BDE8F041FFF764BE2E
:100BF00095683B4FBD42034440D0D068E86043F065
:100C0000010285606260E350B7E7FF07034407D441
:100C100055F8082CA41A1344A068E268C2609060DA
:100C2000304A126843F00100934260608C60B9D38F
:100C30002D4B40461968FFF723FFB3E71046CDE779
:100C400011184968C90744D49168D268CA6003443E
:100C500043F0010091606060E350A3E7142A16D8C6
:100C600002F15C07FF0002F15B05AAE7AA1001236D
:100C70004D6893402B434B600346B0E743F00102BD
:100C80004C610C61E560A5606260E3508AE7542A1C
:100C900006D81A0B02F16F07FF0002F16E0590E70C
:100CA000B2F5AA7F06D8DA0B02F17807FF0002F14D
:100CB000770586E740F25450824206D89A0C02F13A
:100CC0007D07FF0002F17C057BE74FF47E777E25F0
:100CD00077E743F001016160136063E730040020AF
:100CE000380400203C08002068080020034A1168EE
:100CF000034B1B780B441360704700BF9C08002017
:100D000040080020044B1A6B42F001021A631A6C6F
:100D100042F400321A64704700380240084B1A6AE5
:100D200022F470621A621A6A42F4EE421A621A6877
:100D300022F44F621A601A6842F494621A60704793
:100D400000000240064B40F283629A600C22DA6097
:100D500000221A615A61DA6842F40052DA60704780
:100D600000440040012808D0084A936943F4001366
:100D700093610022064B5A717047044A936943F00D
:100D8000200393610122024B5A7170470000024018
:100D9000A0080020044B1B6813F0800FFAD0C0B2EB
:100DA000014B5860704700BF0044004038B505460D
:100DB000002403E0285DFFF7EDFF01342846FFF72C
:100DC0009FFDA042F6D838BD044B1B6813F0200FDE
:100DD000FAD0024B5868C0B2704700BF00440040D0
:100DE00000487047B01000082DE9F041FFF78AFF76
:100DF000FFF794FFFFF7A6FF534C0127277100254B
:100E000065710820FFF79CFA024620604F4B03CB28
:100E1000106051604E4C0223237165710820FFF76A
:100E20008FFA024620604B4B03CB106051604A4C56
:100E30000323237165710820FFF782FA03462060BF
:100E4000464A1068186092889A80FFF7C9FF80466A
:100E5000FFF7ACFF59E00120FFF784FF5BE00020C3
:100E6000FFF780FF59E00020FFF77CFF4046FFF7C7
:100E70009DFF54E00020FFF775FF394B1868FFF71E
:100E800095FF50E01420FFF75BFA0546354E0FCE74
:100E900028606960AA60EB6033882B822846FFF7E0
:100EA00085FF294E3068FFF781FF7379DBB92E4843
:100EB000FFF77CFF264E3068FFF778FF7379A3B900
:100EC0002948FFF773FF244E3068FFF76FFF7379EF
:100ED0006BB92548FFF76AFF2448FFF767FF2846EC
:100EE000FFF736FA23E02248E2E72148E9E7204805
:100EF000F0E70020FFF736FF1E4B1868FFF756FF9C
:100F000017E01D48FFF752FF0027CFB1FFF75CFF46
:100F1000044631289FD0302CA1D0202CA3D0682C9F
:100F2000A8D0482CA6D0732CACD0532CAAD0632CBC
:100F3000DFD01B2CE5D0712CE3D0512CE5D1E0E7BC
:100F40000020BDE8F08100BFA00800207410000858
:100F5000A80800207C100008B008002084100008B9
:100F6000440800208C10000864100008A812000833
:100F70006C10000848080020A0100008FEE7FEE7FB
:100F8000FEE7FEE7FEE770477047704708B5FFF7DA
:100F9000ADFE08BD08B50D4B1B685BB10B4B1A6865
:100FA00013180B480B49091A994207D307490B60DC
:100FB000104608BD084A054B1A60EFE7FFF778F9BD
:100FC0000C2303604FF0FF3008BD00BFB8080020BD
:100FD0000004000000000220C0080020704700004C
:100FE000DFF834D00D480E490E4A002302E0D458F1
:100FF000C4500433C4188C42F9D30B4A0B4C002361
:1010000001E013600432A242FBD3FFF7E7FFFFF7D2
:101010006FF9FFF7E9FE7047000002200000002092
:101020004C080020D41200084C080020C008002002
:10103000FEE70000024B13B10248FFF733B97047D7
:1010400000000000BD020008F8B500BFF8BC08BCF5
:101050009E467047F8B500BFF8BC08BC9E46704776
:1010600008000020094F46460D0A0000094F4E0DAA
:101070000A0000004B69746368656E004265647223
:101080006F6F6D00506F7263680000005B535441D6
:1010900054555320434845434B5D200D0A00000042
:1010A0000A4150502053485554444F574E0A0A00A5
:1010B0000D0A2D2D2D2D2D2D2D2D2D2D2D2D2D2DA3
:1010C0002D2D2D2D2D2D2D2D2D2D2D2D2D2D2D2D50
:1010D0000D0A2A20202020202020202020204D45DD
:1010E0004E55202020202020202020202020202A93
:1010F0000D0A2D2D2D2D2D2D2D2D2D2D2D2D2D2D63
:101100002D2D2D2D2D2D2D2D2D2D2D2D2D2D2D2D0F
:101110000D0A2020202031202020202D20094C45A0
:1011200044204F4E20696E204B69746368656E0DD4
:101130000A2020202030202020202D20094C45444A
:10114000204F464620696E204B69746368656E0DBA
:101150000A7370616365626172202D2009446973AE
:10116000706C61792074686973206D656E750D0A05
:101170002068206F72204820202D20094469737058
:101180006C6179206170702068656C700D0A207345
:10119000206F72205320202D20095072696E742018
:1011A000737461747573206F66204C45440D0A207A
:1011B00020206320202020202D2009436C656172AF
:1011C00020646973706C61792077697468203130AC
:1011D0002A206C696E652066656564730D0A0D0AC8
:1011E000206573632C2071203072205120202D2027
:1011F00009517569740D0A0D0A0D0A000A202D4166
:1012000050502048454C502D200D0A5468697320D9
:10121000697320612064656D6F2061707020757343
:10122000696E6720555341525420746F20696C6C6D
:10123000756D696E61746520616E204C45442E0D9C
:101240000A546865204C45442063616E20616C73CC
:101250006F20626520746F67676C65642062792017
:101260007072657373696E6720746865206F6E6253
:101270006F6172642064656661756C742042757478
:10128000746F6E2E0D0A00000A0A0A0A0A0A0A0A78
:101290000A0A00004C4544202773686F756C642768
:1012A000206265204F46462E0D0A00004C45442022
:1012B0002773686F756C6427206265204F4E2E0D72
:0812C0000A00000043000000D9
:0812C800351000086D0200085A
:0412D00045020008CB
:1012D400080000200000000000000000F4020020CC
:1012E4005C030020C4030020000000000000000094
:1012F40000000000000000000000000000000000EA
:10130400000000000000000000000000C4120008FB
:1013140000000000000000000000000000000000C9
:1013240000000000000000000000000000000000B9
:1013340000000000000000000000000000000000A9
:101344000000000000000000000000000000000099
:101354000000000000000000000000000000000089
:101364000000000000000000000000000000000079
:101374000000000000000000000000000000000069
:1013840001000000000000000E33CDAB34126DE606
:10139400ECDE05000B00000000000000000000006F
:1013A4000000000000000000000000000000000039
:1013B4000000000000000000000000000000000029
:1013C4000000000000000000000000000000000019
:1013D4000000000000000000000000000000000009
:10170400000000000000000030040020300400202D
:101714003804002038040020400400204004002045
:1017240048040020480400205004002050040020F5
:1017340058040020580400206004002060040020A5
:101744006804002068040020700400207004002055
:101754007804002078040020800400208004002005
:1017640088040020880400209004002090040020B5
:101774009804002098040020A0040020A004002065
:10178400A8040020A8040020B0040020B004002015
:10179400B8040020B8040020C0040020C0040020C5
:1017A400C8040020C8040020D0040020D004002075
:1017B400D8040020D8040020E0040020E004002025
:1017C400E8040020E8040020F0040020F0040020D5
:1017D400F8040020F8040020000500200005002083
:1017E4000805002008050020100500201005002031
:1017F40018050020180500202005002020050020E1
:101804002805002028050020300500203005002090
:101814003805002038050020400500204005002040
:1018240048050020480500205005002050050020F0
:1018340058050020580500206005002060050020A0
:101844006805002068050020700500207005002050
:101854007805002078050020800500208005002000
:1018640088050020880500209005002090050020B0
:101874009805002098050020A0050020A005002060
:10188400A8050020A8050020B0050020B005002010
:10189400B8050020B8050020C0050020C0050020C0
:1018A400C8050020C8050020D0050020D005002070
:1018B400D8050020D8050020E0050020E005002020
:1018C400E8050020E8050020F0050020F0050020D0
:1018D400F8050020F805002000060020000600207E
:1018E400080600200806002010060020100600202C
:1018F40018060020180600202006002020060020DC
:10190400280600202806002030060020300600208B
:10191400380600203806002040060020400600203B
:1019240048060020480600205006002050060020EB
:10193400580600205806002060060020600600209B
:10194400680600206806002070060020700600204B
:1019540078060020780600208006002080060020FB
:1019640088060020880600209006002090060020AB
:101974009806002098060020A0060020A00600205B
:10198400A8060020A8060020B0060020B00600200B
:10199400B8060020B8060020C0060020C0060020BB
:1019A400C8060020C8060020D0060020D00600206B
:1019B400D8060020D8060020E0060020E00600201B
:1019C400E8060020E8060020F0060020F0060020CB
:1019D400F8060020F8060020000700200007002079
:1019E4000807002008070020100700201007002027
:1019F40018070020180700202007002020070020D7
:101A04002807002028070020300700203007002086
:101A14003807002038070020400700204007002036
:101A240048070020480700205007002050070020E6
:101A34005807002058070020600700206007002096
:101A44006807002068070020700700207007002046
:101A540078070020780700208007002080070020F6
:101A640088070020880700209007002090070020A6
:101A74009807002098070020A0070020A007002056
:101A8400A8070020A8070020B0070020B007002006
:101A9400B8070020B8070020C0070020C0070020B6
:101AA400C8070020C8070020D0070020D007002066
:101AB400D8070020D8070020E0070020E007002016
:101AC400E8070020E8070020F0070020F0070020C6
:101AD400F8070020F8070020000800200008002074
:101AE4000808002008080020100800201008002022
:101AF40018080020180800202008002020080020D2
:101B04002808002028080020FFFFFFFF0000020033
:0C1B140001000000FC110008881200080D
:0400000508000FE1FF
:00000001FF
